S00C00004C6162312E73726563D8
S11300000C94B4010C94A1020C94D1010C94D10170
S11300100C94D1010C94D1010C94D1010C94D10114
S11300200C94D1010C94D1010C94D1010C94D10104
S11300300C94D1010C94D1010C94D1010C94D101F4
S11300400C94D1010C94D1010C94D1010C94D101E4
S11300500C94D1010C94D1010C94D1010C94D101D4
S11300600C94D1010C94D1010C94D1010C94D101C4
S1130070000000000000000000065F5F06000000B2
S11300800007070007070000147F7F147F7F140018
S1130090242E6B6B3A120000466630180C66620020
S11300A0307A4F5D377A48000407030000000000EF
S11300B0001C3E63410000000041633E1C00000040
S11300C0082A3E1C1C3E2A0808083E3E0808000078
S11300D000A0E0600000000008080808080800000C
S11300E000006060000000006030180C060301008E
S11300F03E7F594D7F3E000042427F7F40400000DA
S1130100627359496F660000226349497F360000D3
S1130110181C16137F7F1000276745457D390000A2
S11301203C7E4B4979300000036371190F070000CE
S1130130367F49497F360000064F49693F1E00005B
S113014000006C6C0000000000A0EC6C00000000DB
S1130150081C366341000000141414141414000025
S1130160004163361C080000020351590F060000C9
S11301703E7F415D5D1F1E007C7E13137E7C00006C
S1130180417F7F49497F36001C3E63414163220021
S1130190417F7F41637F1C00417F7F495D41630054
S11301A0417F7F491D0103001C3E6341517372006E
S11301B07F7F08087F7F000000417F7F41000000AF
S11301C0307040417F3F0100417F7F081C7763000E
S11301D0417F7F41406070007F7F060C067F7F0077
S11301E07F7F060C187F7F001C3E6341633E1C002A
S11301F0417F7F49090F06001E3F21717F5E000089
S1130200417F7F19396F460026674D597B320000C4
S113021003417F7F410300007F7F40407F7F0000D8
S11302201F3F60603F1F00007F7F3018307F7F00DA
S113023063771C081C776300074F78784F0700002A
S11302406773594D47637100007F7F41410000008F
S11302500103060C183060000041417F7F0000005C
S1130260080C0603060C0800808080808080808053
S11302700000030704000000207454543C7840003C
S1130280413F7F44447C3800387C44446C2800005F
S1130290307848493F7F4000387C54545C18000053
S11302A0487E7F490302000098BCA4A4F87C0400A3
S11302B0417F7F08047C780000447D7D400000007D
S11302C040C484FD7D000000417F7F10386C4400F1
S11302D000417F7F400000007C7C0C180C7C78007F
S11302E07C7C04047C780000387C44447C38000026
S11302F084FCF8A4243C1800183C24A4F8FC8400D2
S1130300447C78441C180000485C54547424000055
S113031000043E7F442400003C7C40403C7C400080
S11303201C3C60603C1C00003C7C6030607C3C00F9
S1130330446C3810386C44009CBCA0A0FC7C0000C9
S11303404C64745C4C64000008083E774141000032
S113035000000077770000004141773E0808000064
S1130360020301030203010011241FBECFEFD4E0F6
S1130370DEBFCDBF12E0A0E0B1E0E4E8F9E102C0E5
S113038005900D92A63AB107D9F722E0A6EAB2E0A9
S113039001C01D92AB3BB207E1F70E94A5030C9488
S11303A0C00C0C940000E0910601F09107018068F4
S11303B080838FEF9FE20197F1F700C00000E09186
S11303C00601F0910701808108950F931F93CF9345
S11303D08C0140E06FEF80E30E94F003F80160813C
S11303E066956695669581E30E94D403F801608161
S11303F06295660F607E82E30E94D403F8016181F6
S11304006F7085E30E94D403F8018181882371F021
S1130410C0E0F801EC0FF11D628186E38C0F0E94AD
S1130420D403CF5FF8018181C81798F30E94E803D1
S1130430CF911F910F91089540E06FEF8CE20E94DD
S1130440F0030895AF92BF92CF92DF92EF92FF92A2
S11304500F931F93CF93DF93CDB7DEB72A970FB6D1
S1130460F894DEBF0FBECDBF5C0181E30E94C203DE
S1130470D82E82E30E94C203DD0CDD0CDD0C8295D4
S113048086958770D82A85E60E94C2038F70C82E8D
S113049081F07E0183E0E80EF11C06E60C0D16E601
S11304A0812F0E94C203F70181937F011F5F101304
S11304B0F7CF0E941C02D982CA828AE0FE013196DB
S11304C0D50101900D928A95E1F7C5012A960FB6E0
S11304D0F894DEBF0FBECDBFDF91CF911F910F9176
S11304E0FF90EF90DF90CF90BF90AF9008954FEFC3
S11304F06FEF8BE20E94F0038BB780648BBF85B7EC
S11305008E7F85BF85B78D7F85BF7894089560E819
S11305108FE00E94D40347E067E088E20E94F00382
S11305204CEA6FEF89E20E94F00343E06FEF8AE246
S11305300E94F00360E08FE00E94D4030E947702DF
S113054008951F920F920FB60F9211242F933F9389
S11305504F935F936F937F938F939F93AF93BF93C7
S1130560EF93FF93CF93DF93CDB7DEB72A97DEBF28
S1130570CDBF8CE20E94C203882359F0CE010196BC
S11305800E9422028981823021F48B8190E00E94B2
S113059072042A960FB6F894DEBF0FBECDBFDF916A
S11305A0CF91FF91EF91BF91AF919F918F917F91E7
S11305B06F915F914F913F912F910F900FBE0F90CC
S11305C01F901895CF93C5E081E00E94D30120913C
S11305D0AF023091B002280F311D3093B002209346
S11305E0AF0280E00E94D3014091AD025091AE026F
S11305F0480F511D5093AE024093AD02C15021F7F4
S11306002091AF023091B002ADECBCEC0E94E9073E
S113061096958795969587959093B0028093AF02AF
S11306209A010E94E90796958795969587959093E8
S1130630AE028093AD02CF910895CF9381E00E94E2
S1130640D301C82F80E00E94D301982F8C2FCF9123
S113065008950E941D03292F482F392F90E6980FE3
S11306609B30F8F0403A50F441E3849FC0011124D8
S113067060EA70E00E94D507462F14C04B3A90F010
S1130680482F50E04A5A510961E3649FC001659FB5
S1130690900D112465E570E00E94D50743E3460FF1
S11306A001C042E38BE5820F8B30F0F0353A50F411
S11306B031E3239FC001112465EA70E00E94D5074D
S11306C0362F13C0303B88F030E02F5A310951E304
S11306D0529FC001539F900D112460E570E00E9469
S11306E0D50733E3360F01C032E3842F932F0895E7
S11306F00E941D03993C40F4983740F0893C40F433
S1130700883740F084E0089582E0089583E00895F6
S113071081E0089580E0089582E00E94D301089565
S113072085B7806885BF80B7806280BFF894B89A27
S113073082E283BF89E183BF82E089BF81BF85E014
S113074090E095BD84BD789408950E940A048FE1D9
S113075090E00E94C8070E9490030E94E2020E9457
S113076027070E94A6078EE592E09F938F930E942D
S11307708E080E9487020E94A7040F900F9080E0C9
S113078090E00895CF93C82F0E94B90783E00E9498
S1130790AE078C2F0E94AE070E94B207C82F0E949A
S11307A0BB078C2FCF910895CF93DF93D82FC62FFB
S11307B00E94B90782E00E94AE078D2F0E94AE0707
S11307C08C2F0E94AE070E94BB07DF91CF91089542
S11307D00E94B90781E80E94AE070E94BB070895F2
S11307E01F93CF93DF93182FD62FC42F0E94B907DE
S11307F085E00E94AE07812F0E94AE078D2F0E94D4
S1130800AE078C2F0E94AE070E94BB07DF91CF91E9
S11308101F91089587B3837F87BB08950F931F9318
S1130820CF93C82F60E080E00E9412070E941B074C
S113083060E08C2F0E9489070DE111E0C0E06AE0BE
S11308408C2F0E941207C8010E947A07CF5F0E5EA8
S11308501F4FC530A1F7CF911F910F9108950F93AA
S11308601F93CF93DF9380E00E940E04C1E0D0E099
S113087011E000E00E947803843061F1CC23D1F3CD
S1130880823069F028F4882341F0813029F11BC0BB
S1130890833079F08430B9F4EDCFC02FEBCFDD2372
S11308A011F0D15001C0D4E08D2F0E940E04C02F4E
S11308B0E1CFD43011F0DF5F01C0D0E08D2F0E9472
S11308C00E04C02FD7CF0E941B0785E792E00E9439
S11308D07A07D0CFC12FCECF8D2FDF91CF911F912B
S11308E00F9108952091A602022E000C330BF901FA
S11308F0EE0FFF1FE955FD4F4081518148175907FD
S11309003CF4220F331FF901E955FD4F9183808395
S113091008950E941B076AE082E00E9412078BE799
S113092092E00E947A07E7EAF2E0118210821382D1
S11309301282158214822FEF8FE797E021508040B6
S11309409040E1F700C000000E94A70408950E94AF
S11309502F04823089F028F4882341F0813049F053
S113096014C0833061F0843069F00FC00E94B80570
S113097008950E942F0608950E94C80408950E94B5
S1130980830608950E94890408950E94A704089587
S11309906F927F928F929F92AF92BF92CF92DF928B
S11309A0EF92FF920F931F93CF93DF93CDB7DEB7F0
S11309B029970FB6F894DEBF0FBECDBF60E080E08C
S11309C00E9412070E941B0781E489838A838B8318
S11309D08C83612CA12C992493940F2EF1E47F2E07
S11309E0F02D0F2EFAE58F2EF02D06B302FB002713
S11309F000F90E947803B82E60E080E00E9412079C
S1130A00CA2C0A2C000CDD08B6016B5F7F4F660F01
S1130A10660F660F82E00E94960760E080E00E9405
S1130A201207CE0101967C0118E2612F83E00E9437
S1130A301207F70181917F010E945C07185F183447
S1130A40A1F7F4E0BF1609F45AC0662009F458C0AF
S1130A5021E0B21209C0A39483E08A150CF4A12CFE
S1130A600E941B07612C4CC0B1100BC0AA94AA2091
S1130A7024F40F2EF3E0AF2EF02D0E941B07612CFF
S1130A803FC092E0B9121CC0E1E0F0E0EC0FFD1FA2
S1130A90EC0DFD1D80818150813448F0E1E0F0E0EF
S1130AA0EC0FFD1FEC0DFD1D8083612C29C0E1E0DE
S1130AB0F0E0EC0FFD1FEC0DFD1D8082612C20C0C9
S1130AC0E3E0BE121DC0E1E0F0E0EC0FFD1FEC0D11
S1130AD0FD1D80818F5F8B3548F4E1E0F0E0EC0F81
S1130AE0FD1FEC0DFD1D8083612C0AC0E1E0F0E0E8
S1130AF0EC0FFD1FEC0DFD1D7082612C01C0692CF3
S1130B00002309F472CF85E0EAE8F2E0DE011596ED
S1130B1001900D928A95E1F789818D838A818E8374
S1130B208B818F838C8188878091A602F7E08F0266
S1130B30C0011124BE016B5F7F4F885F9E4F0E94EE
S1130B400C080E94A70429960FB6F894DEBF0FBEC6
S1130B50CDBFDF91CF911F910F91FF90EF90DF9068
S1130B60CF90BF90AF909F908F907F906F9008959B
S1130B700F931F93CF93DF93CDB7DEB764970FB670
S1130B80F894DEBF0FBECDBF0E941B076EE181E06B
S1130B900E9412078FE892E00E947A076EE182E0D9
S1130BA00E9412078091A60227E08202C00111244C
S1130BB0885F9E4F0E947A076AE085E00E941207D0
S1130BC089E992E00E947A0782E08B8786E08C872D
S1130BD081E0898BE091A602EE0FFF0BE955FD4FF2
S1130BE04AE050E0BE016F5F7F4F808191810E9497
S1130BF013086AE585E00E941207CE0101960E945F
S1130C007A0716B312FB112710F90E9429038D8766
S1130C109E870E948C038F87188B86B383FB88275B
S1130C2080F98A8BCE010B960E94E501198A8FEF19
S1130C309FE721E0815090402040E1F700C000C0D0
S1130C40112341F20E94A70464960FB6F894DEBF04
S1130C500FBECDBFDF91CF911F910F910895EF92F9
S1130C60FF921F93CF93DF93CDB7DEB72A970FB6CA
S1130C70F894DEBF0FBECDBF0E941B0760E080E08A
S1130C800E9412070F2EF8E0EF2EF1E0FF2EF02D58
S1130C9010E064E1812F0E941207C7010E947A07C5
S1130CA01F5F87E0E80EF11C133099F70F2EF7EA67
S1130CB0EF2EF2E0FF2EF02D10E04AE050E0BE01EE
S1130CC06F5F7F4FF701819191917F010E9413081B
S1130CD06AE5812F0E941207CE0101960E947A07CD
S1130CE01F5F133051F7B29BFECF0E94A7042A96D0
S1130CF00FB6F894DEBF0FBECDBFDF91CF911F9129
S1130D00FF90EF900895BF92CF92DF92EF92FF92FF
S1130D100F931F93CF93DF930E941B0760E080E043
S1130D200E941207E12CCC24C394D12C6894BB24D8
S1130D30B1F8D6B3D2FBDD27D0F90E947803F82EA0
S1130D4068E08091A6020E94890708E011E0C0E0F3
S1130D506EE18C2F0E941207C8010E947A07CF5FB0
S1130D60095F1F4FC330A1F784E0F81619F1EE2094
S1130D7011F183E0F8120EC08091A6028F5F8330D8
S1130D801CF48093A60202C0D092A6020E941B0704
S1130D90ED2C11C082E0F8120EC08091A6028150A1
S1130DA01AF08093A60202C0B092A6020E941B070A
S1130DB0ED2C01C0EC2CDD2309F4BBCF0E94A70469
S1130DC0DF91CF911F910F91FF90EF90DF90CF9023
S1130DD0BF900895E0E0F0E191E2908380838FE793
S1130DE080830895E0E0F0E181E2808310828FE760
S1130DF0808382E28083108287E080830895CF938A
S1130E00C82F0E94F206C06BC0930010CF910895C2
S1130E100E94FF0680E890E0E0E0F2E11082019792
S1130E20E9F70895CF93C62F0E94FF068C2F0E94E6
S1130E30EA06CF910895CF930E94F206C0E08C2F6A
S1130E400E940807CF5FC830D1F7CF910895E0E042
S1130E50F0E18EEA808381EA80838AED808382E1F7
S1130E60808388EC808388EA80838FE3808385EDA8
S1130E70808380E8808381E8808380E5808389EDB6
S1130E80808381E2808380E2808382E080838BEDB3
S1130E90808380E380838DEA8083108284EA808368
S1130EA086EA80838FEA808380EB8083108280E1EE
S1130EB080830E941B07089590E09C01220F331F3A
S1130EC0220F331F220F331F20593040880F991FE0
S1130ED0880F991F880F991F88589040A0E0B2E1AD
S1130EE0F901459154914C932F5F3F4F28173907CF
S1130EF0B9F70895CF93DF93EC018881882331F00B
S1130F0021960E945C0789918111FBCFDF91CF91DB
S1130F1008950E941207E0E0F2E188E18083808373
S1130F209EE790839CE39083808308950E94120738
S1130F30E0E0F2E1108280E1808390E390832FE788
S1130F4020832083908380831082089587B3806BED
S1130F5087BBBE988DB181658DB908958FB9779B94
S1130F60FECF089580E00E94AE07779BFECF8FB13D
S1130F700895C4980895C49A08955D9BFECF8CB9D2
S1130F8080E090E008955F9BFECF8CB190E00895DF
S1130F9090BD89B988E18AB98EE880BD63EC77E0B9
S1130FA08DEB97E00E944308089597FB072E16F4F3
S1130FB0009407D077FD09D00E94F80707FC05D0FC
S1130FC03EF4909581959F4F0895709561957F4F5C
S1130FD00895A29FB001B39FC001A39F700D811D0E
S1130FE01124911DB29F700D811D1124911D08952E
S1130FF0AA1BBB1B51E107C0AA1FBB1FA617B7073B
S113100010F0A61BB70B881F991F5A95A9F7809556
S11310109095BC01CD010895FB01DC0101900D9276
S11310200020E1F708954532510520F4423010F0D4
S11310300C941E08FB011082CB010895BB274A3093
S113104031F4992322F4BDE2909581959F4F0C943D
S11310502A08BB27FB015527AA27880F991FAA1F17
S1131060A41710F0A41B83955051B9F7A05DAA33BF
S113107008F0A95DA193009779F7B111B19311928A
S1131080CB010C94DF0B0F931F93CF93DF93009747
S113109031F46115710519F480E090E03AC08B01D8
S11310A0EC016EE070E081E090E00E94850AFC01B2
S11310B0892B91F380E883830115110571F013875F
S11310C0028781E883838091B1029091B202892BD7
S11310D021F4F093B202E093B1022097C9F0D187D2
S11310E0C0878381826083838091B3029091B4022C
S11310F0892B71F4F093B402E093B3028091B502AA
S11311009091B602892B21F4F093B602E093B502D4
S1131110CF01DF91CF911F910F910895A0E0B0E02E
S1131120E4E9F8E00C94990CAE014B5F5F4FFA01CF
S113113061917191AF018091B3029091B4020E94C8
S1131140A408E2E00C94B50CABE0B0E0EAEAF8E005
S11311500C94890C6C017B018A01FC0117821682B4
S1131160838181FFCCC1CE0101963C01F6019381BC
S1131170F70193FD859193FF81917F01882309F401
S1131180BAC1853239F493FD859193FF81917F0132
S1131190853229F4B60190E00E94EF0BE7CF912C41
S11311A0212C312CFFE1F315D8F08B3279F038F48F
S11311B0803279F08332A1F4232D20611DC08D3259
S11311C061F0803369F4232D216016C0832D826081
S11311D0382EE32DE4603E2E2AC0F32DF8601DC0A6
S11311E037FC2DC020ED280F2A3040F08E32B9F4A0
S11311F036FC81C1232D2064322E19C036FE06C070
S11312008AE0989E200D1124922E11C0EAE02E9EB1
S1131210200D1124222EF32DF0623F2E08C08C36AF
S113122021F4832D8068382E02C0883641F4F701FA
S113123093FD859193FF81917F018111B3CF982F05
S11312409F7D9554933028F40C5F1F4F9FE399833F
S11312500DC0833631F0833771F0833509F059C0FE
S113126021C0F801808189830E5F1F4F88248394F5
S1131270912C530113C02801F2E04F0E511CF801C8
S1131280A080B18036FE03C0692D70E002C06FEF0C
S11312907FEFC5010E94D40B4C018201F32DFF772F
S11312A03F2E16C0280122E0420E511CF801A080F6
S11312B0B18036FE03C0692D70E002C06FEF7FEF8E
S11312C0C5010E94C20B4C01F32DF0683F2E820130
S11312D033FC1BC0822D90E088169906B0F4B60149
S11312E080E290E00E94EF0B2A94F4CFF50137FCE2
S11312F0859137FE81915F01B60190E00E94EF0B6A
S113130021102A9421E0821A91088114910471F722
S1131310E8C0843611F0893641F5F80137FE07C07C
S113132060817181828193810C5F1F4F08C060814D
S11313307181072E000C880B990B0E5F1F4FF32D44
S1131340FF763F2E97FF09C0909580957095619523
S11313507F4F8F4F9F4FF0683F2E2AE030E0A3016C
S11313600E942B0C882E861845C0853731F4232D16
S11313702F7EB22E2AE030E025C0932D997FB92E1E
S11313808F36C1F018F4883579F0B5C0803719F07C
S1131390883721F0B0C0E92FE061BE2EB4FE0DC045
S11313A0FB2DF460BF2E09C034FE0AC0292F26602D
S11313B0B22E06C028E030E005C020E130E002C0D3
S11313C020E132E0F801B7FE07C0608171818281BB
S11313D093810C5F1F4F06C06081718180E090E0B3
S11313E00E5F1F4FA3010E942B0C882E8618FB2D25
S11313F0FF773F2E36FE0DC0232D2E7FA22E89149B
S113140058F434FE0BC032FC09C0832D8E7EA82E06
S113141005C0B82CA32C03C0B82C01C0B92CA4FE61
S11314200FC0FE01E80DF11D8081803321F49A2D57
S1131430997EA92E09C0A2FE06C0B394B39404C039
S11314408A2D867809F0B394A3FC11C0A0FE06C0CF
S1131450B21488F4280C922C9B180EC0B21460F4B9
S1131460B60180E290E00E94EF0BB394F7CFB21480
S113147018F42B1802C0982C212CA4FE10C0B6011D
S113148080E390E00E94EF0BA2FE17C0A1FC03C012
S113149088E790E002C088E590E0B6010CC08A2D90
S11314A0867859F0A1FE02C08BE201C080E2A7FC5D
S11314B08DE2B60190E00E94EF0B891438F4B60176
S11314C080E390E00E94EF0B9A94F7CF8A94F301A3
S11314D0E80DF11D8081B60190E00E94EF0B8110B0
S11314E0F5CF222009F442CEB60180E290E00E94BA
S11314F0EF0B2A94F6CFF6018681978102C08FEF15
S11315009FEF2B96E2E10C94A50C0F931F93CF93BE
S1131510DF93869F8001879F100D969F100D1124E5
S1131520C8010E94A10AEC01009729F0A80160E01B
S113153070E00E94CD0BCE01DF91CF911F910F91EE
S113154008950F931F93CF93DF938230910510F486
S113155082E090E0E091B902F091BA0220E030E03C
S1131560A0E0B0E0309719F14081518102811381EC
S113157048175907C8F08417950769F4109731F094
S113158012960C93129713961C9327C00093B902DA
S11315901093BA0222C02115310519F042175307DE
S11315A018F49A01BD01EF01DF01F801DBCF211529
S11315B03105F9F0281B390B2430310580F48A8178
S11315C09B816115710521F0FB019383828304C023
S11315D09093BA028093B902FE01329644C0FE0190
S11315E0E20FF31F819391932250310939832883A9
S11315F03AC02091B7023091B802232B41F42091D4
S11316000201309103013093B8022093B702209174
S11316100001309101012115310541F42DB73EB788
S11316204091040150910501241B350BE091B70250
S1131630F091B802E217F307A0F42E1B3F0B281712
S1131640390778F0AC014E5F5F4F2417350748F037
S11316504E0F5F1F5093B8024093B702819391934A
S113166002C0E0E0F0E0CF01DF91CF911F910F9134
S11316700895CF93DF93009709F481C0FC0132975A
S113168013821282A091B902B091BA02109781F428
S113169020813181820F931F2091B7023091B802CB
S11316A02817390751F5F093B802E093B70267C0E1
S11316B0ED0120E030E0CE17DF0740F44A815B8182
S11316C09E0141155105F1F0EA01F5CFD383C283A0
S11316D040815181840F951FC817D90759F4888117
S11316E09981840F951F0296918380838A819B81BF
S11316F0938382832115310529F4F093BA02E09390
S1131700B9023DC0E901FB83EA8349915991C40FB1
S1131710D51FEC17FD0761F480819181840F951F1B
S11317200296E90199838883828193819B838A83CA
S1131730E0E0F0E012968D919C911397009719F0D8
S1131740FD01DC01F7CF8D919C9111979D012E5FD6
S11317503F4F820F931F2091B7023091B802281790
S1131760390769F4309729F41092BA021092B90239
S113177002C013821282B093B802A093B702DF9121
S1131780CF910895FC010590615070400110D8F785
S1131790809590958E0F9F1F0895DC0101C06D9375
S11317A041505040E0F70895FC01615070400190B1
S11317B00110D8F7809590958E0F9F1F0895DC0136
S11317C0FC01672F71917723E1F7329704C07C9174
S11317D06D9370836291AE17BF07C8F308950F939A
S11317E01F93CF93DF93FB01238121FD03C08FEF70
S11317F09FEF2CC022FF16C046815781248135817A
S11318004217530744F4A081B1819D012F5F3F4FDC
S1131810318320838C93268137812F5F3F4F378319
S1131820268314C08B01EC01FB010084F185E02DBB
S11318300995892BE1F6D80116968D919C911797FD
S1131840019617969C938E931697CE01DF91CF91B4
S11318501F910F910895FA01AA27283051F12031E0
S113186081F1E8946F936E7F6E5F7F4F8F4F9F4F30
S1131870AF4FB1E03ED0B4E03CD0670F781F891F72
S11318809A1FA11D680F791F8A1F911DA11D6A0F40
S1131890711D811D911DA11D20D009F468943F91F3
S11318A02AE0269F11243019305D3193DEF6CF01F2
S11318B00895462F4770405D4193B3E00FD0C9F7B8
S11318C0F6CF462F4F70405D4A3318F0495D31FD25
S11318D04052419302D0A9F7EACFB4E0A695979578
S11318E0879577956795BA95C9F70097610571054E
S11318F008959B01AC010A2E069457954795379598
S11319002795BA95C9F7620F731F841F951FA01DF1
S113191008952F923F924F925F926F927F928F928F
S11319209F92AF92BF92CF92DF92EF92FF920F936A
S11319301F93CF93DF93CDB7DEB7CA1BDB0B0FB674
S1131940F894DEBF0FBECDBF09942A883988488831
S11319505F846E847D848C849B84AA84B984C884C7
S1131960DF80EE80FD800C811B81AA81B981CE0FBE
S1131970D11D0FB6F894DEBF0FBECDBFED010895A3
S1071980F894FFCF05
S11319840000BB0220000014506574746572004AA0
S113199461726C6500004A6F68616E00004E657781
S11319A42067616D65000000000000000000005322
S11319B4636F7265626F617264000000000000006E
S11319C400437265617465206E616D6500000000FA
S11319D400000053656C65637420706C61796572F2
S11319E4000000000052657365742073636F7265B0
S11319F4000000000000005374617274696E672073
S1131A045352414D20746573742E2E2E00577269FF
S1131A147465207068617365206572726F723A2010
S1131A246578745F72616D5B2534645D203D2025A7
S1131A34303258202873686F756C642062652025E1
S1131A44303258290A0D0052657472696576616CE6
S1131A54207068617365206572726F723A206578CC
S1131A64745F72616D5B2534645D203D20253032E2
S1131A7458202873686F756C6420626520253032A1
S1131A8458290A0D005352414D2074657374206320
S1131A946F6D706C657465642077697468200A25B9
S1131AA43464206572726F727320696E2077726970
S1131AB4746520706861736520616E64200A25343E
S1131AC464206572726F727320696E207265747219
S1131AD4696576616C2070686173650A0A000A4E50
S1131AE46F64652031207374617274696E67207544
S1131AF470210A0D006572726F7200526573657409
S1131B04696E672073636F72650020202020005083
S1131B146C6179696E672E2E004869676873636F18
S1091B2472653A20000086
S9030000FC
